{
  "_format": "hh-sol-artifact-1",
  "contractName": "NFTorium",
  "sourceName": "contracts/NFTorium.sol",
  "abi": [
    {
      "inputs": [
        {
          "internalType": "address",
          "name": "initialOwner",
          "type": "address"
        }
      ],
      "stateMutability": "nonpayable",
      "type": "constructor"
    },
    {
      "inputs": [
        {
          "internalType": "address",
          "name": "sender",
          "type": "address"
        },
        {
          "internalType": "uint256",
          "name": "tokenId",
          "type": "uint256"
        },
        {
          "internalType": "address",
          "name": "owner",
          "type": "address"
        }
      ],
      "name": "ERC721IncorrectOwner",
      "type": "error"
    },
    {
      "inputs": [
        {
          "internalType": "address",
          "name": "operator",
          "type": "address"
        },
        {
          "internalType": "uint256",
          "name": "tokenId",
          "type": "uint256"
        }
      ],
      "name": "ERC721InsufficientApproval",
      "type": "error"
    },
    {
      "inputs": [
        {
          "internalType": "address",
          "name": "approver",
          "type": "address"
        }
      ],
      "name": "ERC721InvalidApprover",
      "type": "error"
    },
    {
      "inputs": [
        {
          "internalType": "address",
          "name": "operator",
          "type": "address"
        }
      ],
      "name": "ERC721InvalidOperator",
      "type": "error"
    },
    {
      "inputs": [
        {
          "internalType": "address",
          "name": "owner",
          "type": "address"
        }
      ],
      "name": "ERC721InvalidOwner",
      "type": "error"
    },
    {
      "inputs": [
        {
          "internalType": "address",
          "name": "receiver",
          "type": "address"
        }
      ],
      "name": "ERC721InvalidReceiver",
      "type": "error"
    },
    {
      "inputs": [
        {
          "internalType": "address",
          "name": "sender",
          "type": "address"
        }
      ],
      "name": "ERC721InvalidSender",
      "type": "error"
    },
    {
      "inputs": [
        {
          "internalType": "uint256",
          "name": "tokenId",
          "type": "uint256"
        }
      ],
      "name": "ERC721NonexistentToken",
      "type": "error"
    },
    {
      "inputs": [
        {
          "internalType": "address",
          "name": "owner",
          "type": "address"
        }
      ],
      "name": "OwnableInvalidOwner",
      "type": "error"
    },
    {
      "inputs": [
        {
          "internalType": "address",
          "name": "account",
          "type": "address"
        }
      ],
      "name": "OwnableUnauthorizedAccount",
      "type": "error"
    },
    {
      "anonymous": false,
      "inputs": [
        {
          "indexed": true,
          "internalType": "address",
          "name": "owner",
          "type": "address"
        },
        {
          "indexed": true,
          "internalType": "address",
          "name": "approved",
          "type": "address"
        },
        {
          "indexed": true,
          "internalType": "uint256",
          "name": "tokenId",
          "type": "uint256"
        }
      ],
      "name": "Approval",
      "type": "event"
    },
    {
      "anonymous": false,
      "inputs": [
        {
          "indexed": true,
          "internalType": "address",
          "name": "owner",
          "type": "address"
        },
        {
          "indexed": true,
          "internalType": "address",
          "name": "operator",
          "type": "address"
        },
        {
          "indexed": false,
          "internalType": "bool",
          "name": "approved",
          "type": "bool"
        }
      ],
      "name": "ApprovalForAll",
      "type": "event"
    },
    {
      "anonymous": false,
      "inputs": [
        {
          "indexed": false,
          "internalType": "uint256",
          "name": "_fromTokenId",
          "type": "uint256"
        },
        {
          "indexed": false,
          "internalType": "uint256",
          "name": "_toTokenId",
          "type": "uint256"
        }
      ],
      "name": "BatchMetadataUpdate",
      "type": "event"
    },
    {
      "anonymous": false,
      "inputs": [
        {
          "indexed": false,
          "internalType": "uint256",
          "name": "_tokenId",
          "type": "uint256"
        }
      ],
      "name": "MetadataUpdate",
      "type": "event"
    },
    {
      "anonymous": false,
      "inputs": [
        {
          "indexed": false,
          "internalType": "uint256",
          "name": "tokenId",
          "type": "uint256"
        },
        {
          "indexed": false,
          "internalType": "uint256",
          "name": "price",
          "type": "uint256"
        },
        {
          "indexed": false,
          "internalType": "address",
          "name": "seller",
          "type": "address"
        }
      ],
      "name": "NFTListed",
      "type": "event"
    },
    {
      "anonymous": false,
      "inputs": [
        {
          "indexed": false,
          "internalType": "uint256",
          "name": "tokenId",
          "type": "uint256"
        },
        {
          "indexed": false,
          "internalType": "uint256",
          "name": "price",
          "type": "uint256"
        },
        {
          "indexed": false,
          "internalType": "address",
          "name": "seller",
          "type": "address"
        },
        {
          "indexed": false,
          "internalType": "address",
          "name": "buyer",
          "type": "address"
        }
      ],
      "name": "NFTSold",
      "type": "event"
    },
    {
      "anonymous": false,
      "inputs": [
        {
          "indexed": true,
          "internalType": "address",
          "name": "previousOwner",
          "type": "address"
        },
        {
          "indexed": true,
          "internalType": "address",
          "name": "newOwner",
          "type": "address"
        }
      ],
      "name": "OwnershipTransferred",
      "type": "event"
    },
    {
      "anonymous": false,
      "inputs": [
        {
          "indexed": true,
          "internalType": "address",
          "name": "from",
          "type": "address"
        },
        {
          "indexed": true,
          "internalType": "address",
          "name": "to",
          "type": "address"
        },
        {
          "indexed": true,
          "internalType": "uint256",
          "name": "tokenId",
          "type": "uint256"
        }
      ],
      "name": "Transfer",
      "type": "event"
    },
    {
      "inputs": [
        {
          "internalType": "address",
          "name": "to",
          "type": "address"
        },
        {
          "internalType": "uint256",
          "name": "tokenId",
          "type": "uint256"
        }
      ],
      "name": "approve",
      "outputs": [],
      "stateMutability": "nonpayable",
      "type": "function"
    },
    {
      "inputs": [
        {
          "internalType": "address",
          "name": "owner",
          "type": "address"
        }
      ],
      "name": "balanceOf",
      "outputs": [
        {
          "internalType": "uint256",
          "name": "",
          "type": "uint256"
        }
      ],
      "stateMutability": "view",
      "type": "function"
    },
    {
      "inputs": [
        {
          "internalType": "uint256",
          "name": "tokenId",
          "type": "uint256"
        }
      ],
      "name": "buyNFT",
      "outputs": [],
      "stateMutability": "payable",
      "type": "function"
    },
    {
      "inputs": [
        {
          "internalType": "uint256",
          "name": "tokenId",
          "type": "uint256"
        }
      ],
      "name": "cancelListing",
      "outputs": [],
      "stateMutability": "nonpayable",
      "type": "function"
    },
    {
      "inputs": [
        {
          "internalType": "uint256",
          "name": "tokenId",
          "type": "uint256"
        }
      ],
      "name": "getApproved",
      "outputs": [
        {
          "internalType": "address",
          "name": "",
          "type": "address"
        }
      ],
      "stateMutability": "view",
      "type": "function"
    },
    {
      "inputs": [
        {
          "internalType": "uint256",
          "name": "tokenId",
          "type": "uint256"
        }
      ],
      "name": "getListing",
      "outputs": [
        {
          "components": [
            {
              "internalType": "uint256",
              "name": "price",
              "type": "uint256"
            },
            {
              "internalType": "address",
              "name": "seller",
              "type": "address"
            }
          ],
          "internalType": "struct NFTorium.NFTListing",
          "name": "",
          "type": "tuple"
        }
      ],
      "stateMutability": "view",
      "type": "function"
    },
    {
      "inputs": [
        {
          "internalType": "address",
          "name": "owner",
          "type": "address"
        },
        {
          "internalType": "address",
          "name": "operator",
          "type": "address"
        }
      ],
      "name": "isApprovedForAll",
      "outputs": [
        {
          "internalType": "bool",
          "name": "",
          "type": "bool"
        }
      ],
      "stateMutability": "view",
      "type": "function"
    },
    {
      "inputs": [
        {
          "internalType": "uint256",
          "name": "tokenId",
          "type": "uint256"
        },
        {
          "internalType": "uint256",
          "name": "price",
          "type": "uint256"
        }
      ],
      "name": "listNFT",
      "outputs": [],
      "stateMutability": "nonpayable",
      "type": "function"
    },
    {
      "inputs": [
        {
          "internalType": "string",
          "name": "tokenURI",
          "type": "string"
        }
      ],
      "name": "mint",
      "outputs": [
        {
          "internalType": "uint256",
          "name": "",
          "type": "uint256"
        }
      ],
      "stateMutability": "nonpayable",
      "type": "function"
    },
    {
      "inputs": [],
      "name": "name",
      "outputs": [
        {
          "internalType": "string",
          "name": "",
          "type": "string"
        }
      ],
      "stateMutability": "view",
      "type": "function"
    },
    {
      "inputs": [],
      "name": "owner",
      "outputs": [
        {
          "internalType": "address",
          "name": "",
          "type": "address"
        }
      ],
      "stateMutability": "view",
      "type": "function"
    },
    {
      "inputs": [
        {
          "internalType": "uint256",
          "name": "tokenId",
          "type": "uint256"
        }
      ],
      "name": "ownerOf",
      "outputs": [
        {
          "internalType": "address",
          "name": "",
          "type": "address"
        }
      ],
      "stateMutability": "view",
      "type": "function"
    },
    {
      "inputs": [],
      "name": "renounceOwnership",
      "outputs": [],
      "stateMutability": "nonpayable",
      "type": "function"
    },
    {
      "inputs": [
        {
          "internalType": "address",
          "name": "from",
          "type": "address"
        },
        {
          "internalType": "address",
          "name": "to",
          "type": "address"
        },
        {
          "internalType": "uint256",
          "name": "tokenId",
          "type": "uint256"
        }
      ],
      "name": "safeTransferFrom",
      "outputs": [],
      "stateMutability": "nonpayable",
      "type": "function"
    },
    {
      "inputs": [
        {
          "internalType": "address",
          "name": "from",
          "type": "address"
        },
        {
          "internalType": "address",
          "name": "to",
          "type": "address"
        },
        {
          "internalType": "uint256",
          "name": "tokenId",
          "type": "uint256"
        },
        {
          "internalType": "bytes",
          "name": "data",
          "type": "bytes"
        }
      ],
      "name": "safeTransferFrom",
      "outputs": [],
      "stateMutability": "nonpayable",
      "type": "function"
    },
    {
      "inputs": [
        {
          "internalType": "address",
          "name": "operator",
          "type": "address"
        },
        {
          "internalType": "bool",
          "name": "approved",
          "type": "bool"
        }
      ],
      "name": "setApprovalForAll",
      "outputs": [],
      "stateMutability": "nonpayable",
      "type": "function"
    },
    {
      "inputs": [
        {
          "internalType": "bytes4",
          "name": "interfaceId",
          "type": "bytes4"
        }
      ],
      "name": "supportsInterface",
      "outputs": [
        {
          "internalType": "bool",
          "name": "",
          "type": "bool"
        }
      ],
      "stateMutability": "view",
      "type": "function"
    },
    {
      "inputs": [],
      "name": "symbol",
      "outputs": [
        {
          "internalType": "string",
          "name": "",
          "type": "string"
        }
      ],
      "stateMutability": "view",
      "type": "function"
    },
    {
      "inputs": [
        {
          "internalType": "uint256",
          "name": "tokenId",
          "type": "uint256"
        }
      ],
      "name": "tokenURI",
      "outputs": [
        {
          "internalType": "string",
          "name": "",
          "type": "string"
        }
      ],
      "stateMutability": "view",
      "type": "function"
    },
    {
      "inputs": [
        {
          "internalType": "address",
          "name": "from",
          "type": "address"
        },
        {
          "internalType": "address",
          "name": "to",
          "type": "address"
        },
        {
          "internalType": "uint256",
          "name": "tokenId",
          "type": "uint256"
        }
      ],
      "name": "transferFrom",
      "outputs": [],
      "stateMutability": "nonpayable",
      "type": "function"
    },
    {
      "inputs": [
        {
          "internalType": "address",
          "name": "newOwner",
          "type": "address"
        }
      ],
      "name": "transferOwnership",
      "outputs": [],
      "stateMutability": "nonpayable",
      "type": "function"
    }
  ],
  "bytecode": "0x60806040523480156200001157600080fd5b50604051620038c3380380620038c3833981810160405281019062000037919062000288565b806040518060400160405280600881526020017f4e46546f7269756d0000000000000000000000000000000000000000000000008152506040518060400160405280600281526020017f4e540000000000000000000000000000000000000000000000000000000000008152508160009081620000b5919062000534565b508060019081620000c7919062000534565b505050600073ffffffffffffffffffffffffffffffffffffffff168173ffffffffffffffffffffffffffffffffffffffff16036200013f5760006040517f1e4fbdf70000000000000000000000000000000000000000000000000000000081526004016200013691906200062c565b60405180910390fd5b62000150816200015860201b60201c565b505062000649565b6000600760009054906101000a900473ffffffffffffffffffffffffffffffffffffffff16905081600760006101000a81548173ffffffffffffffffffffffffffffffffffffffff021916908373ffffffffffffffffffffffffffffffffffffffff1602179055508173ffffffffffffffffffffffffffffffffffffffff168173ffffffffffffffffffffffffffffffffffffffff167f8be0079c531659141344cd1fd0a4f28419497f9722a3daafe3b4186f6b6457e060405160405180910390a35050565b600080fd5b600073ffffffffffffffffffffffffffffffffffffffff82169050919050565b6000620002508262000223565b9050919050565b620002628162000243565b81146200026e57600080fd5b50565b600081519050620002828162000257565b92915050565b600060208284031215620002a157620002a06200021e565b5b6000620002b18482850162000271565b91505092915050565b600081519050919050565b7f4e487b7100000000000000000000000000000000000000000000000000000000600052604160045260246000fd5b7f4e487b7100000000000000000000000000000000000000000000000000000000600052602260045260246000fd5b600060028204905060018216806200033c57607f821691505b602082108103620003525762000351620002f4565b5b50919050565b60008190508160005260206000209050919050565b60006020601f8301049050919050565b600082821b905092915050565b600060088302620003bc7fffffffffffffffffffffffffffffffffffffffffffffffffffffffffffffffff826200037d565b620003c886836200037d565b95508019841693508086168417925050509392505050565b6000819050919050565b6000819050919050565b6000620004156200040f6200040984620003e0565b620003ea565b620003e0565b9050919050565b6000819050919050565b6200043183620003f4565b6200044962000440826200041c565b8484546200038a565b825550505050565b600090565b6200046062000451565b6200046d81848462000426565b505050565b5b8181101562000495576200048960008262000456565b60018101905062000473565b5050565b601f821115620004e457620004ae8162000358565b620004b9846200036d565b81016020851015620004c9578190505b620004e1620004d8856200036d565b83018262000472565b50505b505050565b600082821c905092915050565b60006200050960001984600802620004e9565b1980831691505092915050565b6000620005248383620004f6565b9150826002028217905092915050565b6200053f82620002ba565b67ffffffffffffffff8111156200055b576200055a620002c5565b5b62000567825462000323565b6200057482828562000499565b600060209050601f831160018114620005ac576000841562000597578287015190505b620005a3858262000516565b86555062000613565b601f198416620005bc8662000358565b60005b82811015620005e657848901518255600182019150602085019450602081019050620005bf565b8683101562000606578489015162000602601f891682620004f6565b8355505b6001600288020188555050505b505050505050565b620006268162000243565b82525050565b60006020820190506200064360008301846200061b565b92915050565b61326a80620006596000396000f3fe60806040526004361061012a5760003560e01c806370a08231116100ab578063a22cb4651161006f578063a22cb465146103e1578063b88d4fde1461040a578063c87b56dd14610433578063d85d3d2714610470578063e985e9c5146104ad578063f2fde38b146104ea5761012a565b806370a082311461030e578063715018a61461034b5780638da5cb5b1461036257806394383f141461038d57806395d89b41146103b65761012a565b806323b872dd116100f257806323b872dd1461023a578063305a67a81461026357806342842e0e1461028c57806351ed8288146102b55780636352211e146102d15761012a565b806301ffc9a71461012f57806306fdde031461016c578063081812fc14610197578063095ea7b3146101d4578063107a274a146101fd575b600080fd5b34801561013b57600080fd5b5061015660048036038101906101519190612361565b610513565b60405161016391906123a9565b60405180910390f35b34801561017857600080fd5b50610181610574565b60405161018e9190612454565b60405180910390f35b3480156101a357600080fd5b506101be60048036038101906101b991906124ac565b610606565b6040516101cb919061251a565b60405180910390f35b3480156101e057600080fd5b506101fb60048036038101906101f69190612561565b610622565b005b34801561020957600080fd5b50610224600480360381019061021f91906124ac565b610638565b60405161023191906125ee565b60405180910390f35b34801561024657600080fd5b50610261600480360381019061025c9190612609565b6106c5565b005b34801561026f57600080fd5b5061028a600480360381019061028591906124ac565b6107c7565b005b34801561029857600080fd5b506102b360048036038101906102ae9190612609565b6108b3565b005b6102cf60048036038101906102ca91906124ac565b6108d3565b005b3480156102dd57600080fd5b506102f860048036038101906102f391906124ac565b610b2a565b604051610305919061251a565b60405180910390f35b34801561031a57600080fd5b506103356004803603810190610330919061265c565b610b3c565b6040516103429190612698565b60405180910390f35b34801561035757600080fd5b50610360610bf6565b005b34801561036e57600080fd5b50610377610c0a565b604051610384919061251a565b60405180910390f35b34801561039957600080fd5b506103b460048036038101906103af91906126b3565b610c34565b005b3480156103c257600080fd5b506103cb610dbe565b6040516103d89190612454565b60405180910390f35b3480156103ed57600080fd5b506104086004803603810190610403919061271f565b610e50565b005b34801561041657600080fd5b50610431600480360381019061042c9190612894565b610e66565b005b34801561043f57600080fd5b5061045a600480360381019061045591906124ac565b610e83565b6040516104679190612454565b60405180910390f35b34801561047c57600080fd5b50610497600480360381019061049291906129b8565b610f96565b6040516104a49190612698565b60405180910390f35b3480156104b957600080fd5b506104d460048036038101906104cf9190612a01565b610fcf565b6040516104e191906123a9565b60405180910390f35b3480156104f657600080fd5b50610511600480360381019061050c919061265c565b611063565b005b6000634906490660e01b7bffffffffffffffffffffffffffffffffffffffffffffffffffffffff1916827bffffffffffffffffffffffffffffffffffffffffffffffffffffffff1916148061056d575061056c826110e9565b5b9050919050565b60606000805461058390612a70565b80601f01602080910402602001604051908101604052809291908181526020018280546105af90612a70565b80156105fc5780601f106105d1576101008083540402835291602001916105fc565b820191906000526020600020905b8154815290600101906020018083116105df57829003601f168201915b5050505050905090565b6000610611826111cb565b5061061b82611253565b9050919050565b610634828261062f611290565b611298565b5050565b6106406122c5565b60096000838152602001908152602001600020604051806040016040529081600082015481526020016001820160009054906101000a900473ffffffffffffffffffffffffffffffffffffffff1673ffffffffffffffffffffffffffffffffffffffff1673ffffffffffffffffffffffffffffffffffffffff16815250509050919050565b600073ffffffffffffffffffffffffffffffffffffffff168273ffffffffffffffffffffffffffffffffffffffff16036107375760006040517f64a0ae9200000000000000000000000000000000000000000000000000000000815260040161072e919061251a565b60405180910390fd5b600061074b8383610746611290565b6112aa565b90508373ffffffffffffffffffffffffffffffffffffffff168173ffffffffffffffffffffffffffffffffffffffff16146107c1578382826040517f64283d7b0000000000000000000000000000000000000000000000000000000081526004016107b893929190612aa1565b60405180910390fd5b50505050565b3373ffffffffffffffffffffffffffffffffffffffff166009600083815260200190815260200160002060010160009054906101000a900473ffffffffffffffffffffffffffffffffffffffff1673ffffffffffffffffffffffffffffffffffffffff161461086b576040517f08c379a000000000000000000000000000000000000000000000000000000000815260040161086290612b24565b60405180910390fd5b600960008281526020019081526020016000206000808201600090556001820160006101000a81549073ffffffffffffffffffffffffffffffffffffffff0219169055505050565b6108ce83838360405180602001604052806000815250610e66565b505050565b600060096000838152602001908152602001600020604051806040016040529081600082015481526020016001820160009054906101000a900473ffffffffffffffffffffffffffffffffffffffff1673ffffffffffffffffffffffffffffffffffffffff1673ffffffffffffffffffffffffffffffffffffffff16815250509050600081600001511161099c576040517f08c379a000000000000000000000000000000000000000000000000000000000815260040161099390612b90565b60405180910390fd5b80600001513410156109e3576040517f08c379a00000000000000000000000000000000000000000000000000000000081526004016109da90612bfc565b60405180910390fd5b600081602001519050600082600001519050600960008581526020019081526020016000206000808201600090556001820160006101000a81549073ffffffffffffffffffffffffffffffffffffffff02191690555050610a458233866114c4565b8173ffffffffffffffffffffffffffffffffffffffff166108fc829081150290604051600060405180830381858888f19350505050158015610a8b573d6000803e3d6000fd5b5080341115610ae7573373ffffffffffffffffffffffffffffffffffffffff166108fc8234610aba9190612c4b565b9081150290604051600060405180830381858888f19350505050158015610ae5573d6000803e3d6000fd5b505b7f2820044bbebd591ee7d08b7d81dd01945a1a32706da693a946e532d6d988425884828433604051610b1c9493929190612c7f565b60405180910390a150505050565b6000610b35826111cb565b9050919050565b60008073ffffffffffffffffffffffffffffffffffffffff168273ffffffffffffffffffffffffffffffffffffffff1603610baf5760006040517f89c62b64000000000000000000000000000000000000000000000000000000008152600401610ba6919061251a565b60405180910390fd5b600360008373ffffffffffffffffffffffffffffffffffffffff1673ffffffffffffffffffffffffffffffffffffffff168152602001908152602001600020549050919050565b610bfe611631565b610c0860006116b8565b565b6000600760009054906101000a900473ffffffffffffffffffffffffffffffffffffffff16905090565b3373ffffffffffffffffffffffffffffffffffffffff16610c5483610b2a565b73ffffffffffffffffffffffffffffffffffffffff1614610caa576040517f08c379a0000000000000000000000000000000000000000000000000000000008152600401610ca190612d10565b60405180910390fd5b60008111610ced576040517f08c379a0000000000000000000000000000000000000000000000000000000008152600401610ce490612d7c565b60405180910390fd5b60405180604001604052808281526020013373ffffffffffffffffffffffffffffffffffffffff16815250600960008481526020019081526020016000206000820151816000015560208201518160010160006101000a81548173ffffffffffffffffffffffffffffffffffffffff021916908373ffffffffffffffffffffffffffffffffffffffff1602179055509050507fd2ab19646d6f9fdd37206f962b4ebaab8a4a23ad87f7695e7e1736803cb8bf74828233604051610db293929190612d9c565b60405180910390a15050565b606060018054610dcd90612a70565b80601f0160208091040260200160405190810160405280929190818152602001828054610df990612a70565b8015610e465780601f10610e1b57610100808354040283529160200191610e46565b820191906000526020600020905b815481529060010190602001808311610e2957829003601f168201915b5050505050905090565b610e62610e5b611290565b838361177e565b5050565b610e718484846106c5565b610e7d848484846118ed565b50505050565b6060610e8e826111cb565b506000600660008481526020019081526020016000208054610eaf90612a70565b80601f0160208091040260200160405190810160405280929190818152602001828054610edb90612a70565b8015610f285780601f10610efd57610100808354040283529160200191610f28565b820191906000526020600020905b815481529060010190602001808311610f0b57829003601f168201915b505050505090506000610f39611aa4565b90506000815103610f4e578192505050610f91565b600082511115610f83578082604051602001610f6b929190612e0f565b60405160208183030381529060405292505050610f91565b610f8c84611abb565b925050505b919050565b60008060086000815480929190610fac90612e33565b919050559050610fbc3382611b24565b610fc68184611b42565b80915050919050565b6000600560008473ffffffffffffffffffffffffffffffffffffffff1673ffffffffffffffffffffffffffffffffffffffff16815260200190815260200160002060008373ffffffffffffffffffffffffffffffffffffffff1673ffffffffffffffffffffffffffffffffffffffff16815260200190815260200160002060009054906101000a900460ff16905092915050565b61106b611631565b600073ffffffffffffffffffffffffffffffffffffffff168173ffffffffffffffffffffffffffffffffffffffff16036110dd5760006040517f1e4fbdf70000000000000000000000000000000000000000000000000000000081526004016110d4919061251a565b60405180910390fd5b6110e6816116b8565b50565b60007f80ac58cd000000000000000000000000000000000000000000000000000000007bffffffffffffffffffffffffffffffffffffffffffffffffffffffff1916827bffffffffffffffffffffffffffffffffffffffffffffffffffffffff191614806111b457507f5b5e139f000000000000000000000000000000000000000000000000000000007bffffffffffffffffffffffffffffffffffffffffffffffffffffffff1916827bffffffffffffffffffffffffffffffffffffffffffffffffffffffff1916145b806111c457506111c382611b9e565b5b9050919050565b6000806111d783611c08565b9050600073ffffffffffffffffffffffffffffffffffffffff168173ffffffffffffffffffffffffffffffffffffffff160361124a57826040517f7e2732890000000000000000000000000000000000000000000000000000000081526004016112419190612698565b60405180910390fd5b80915050919050565b60006004600083815260200190815260200160002060009054906101000a900473ffffffffffffffffffffffffffffffffffffffff169050919050565b600033905090565b6112a58383836001611c45565b505050565b6000806112b684611c08565b9050600073ffffffffffffffffffffffffffffffffffffffff168373ffffffffffffffffffffffffffffffffffffffff16146112f8576112f7818486611e0a565b5b600073ffffffffffffffffffffffffffffffffffffffff168173ffffffffffffffffffffffffffffffffffffffff16146113895761133a600085600080611c45565b6001600360008373ffffffffffffffffffffffffffffffffffffffff1673ffffffffffffffffffffffffffffffffffffffff168152602001908152602001600020600082825403925050819055505b600073ffffffffffffffffffffffffffffffffffffffff168573ffffffffffffffffffffffffffffffffffffffff161461140c576001600360008773ffffffffffffffffffffffffffffffffffffffff1673ffffffffffffffffffffffffffffffffffffffff168152602001908152602001600020600082825401925050819055505b846002600086815260200190815260200160002060006101000a81548173ffffffffffffffffffffffffffffffffffffffff021916908373ffffffffffffffffffffffffffffffffffffffff160217905550838573ffffffffffffffffffffffffffffffffffffffff168273ffffffffffffffffffffffffffffffffffffffff167fddf252ad1be2c89b69c2b068fc378daa952ba7f163c4a11628f55a4df523b3ef60405160405180910390a4809150509392505050565b600073ffffffffffffffffffffffffffffffffffffffff168273ffffffffffffffffffffffffffffffffffffffff16036115365760006040517f64a0ae9200000000000000000000000000000000000000000000000000000000815260040161152d919061251a565b60405180910390fd5b6000611544838360006112aa565b9050600073ffffffffffffffffffffffffffffffffffffffff168173ffffffffffffffffffffffffffffffffffffffff16036115b757816040517f7e2732890000000000000000000000000000000000000000000000000000000081526004016115ae9190612698565b60405180910390fd5b8373ffffffffffffffffffffffffffffffffffffffff168173ffffffffffffffffffffffffffffffffffffffff161461162b578382826040517f64283d7b00000000000000000000000000000000000000000000000000000000815260040161162293929190612aa1565b60405180910390fd5b50505050565b611639611290565b73ffffffffffffffffffffffffffffffffffffffff16611657610c0a565b73ffffffffffffffffffffffffffffffffffffffff16146116b65761167a611290565b6040517f118cdaa70000000000000000000000000000000000000000000000000000000081526004016116ad919061251a565b60405180910390fd5b565b6000600760009054906101000a900473ffffffffffffffffffffffffffffffffffffffff16905081600760006101000a81548173ffffffffffffffffffffffffffffffffffffffff021916908373ffffffffffffffffffffffffffffffffffffffff1602179055508173ffffffffffffffffffffffffffffffffffffffff168173ffffffffffffffffffffffffffffffffffffffff167f8be0079c531659141344cd1fd0a4f28419497f9722a3daafe3b4186f6b6457e060405160405180910390a35050565b600073ffffffffffffffffffffffffffffffffffffffff168273ffffffffffffffffffffffffffffffffffffffff16036117ef57816040517f5b08ba180000000000000000000000000000000000000000000000000000000081526004016117e6919061251a565b60405180910390fd5b80600560008573ffffffffffffffffffffffffffffffffffffffff1673ffffffffffffffffffffffffffffffffffffffff16815260200190815260200160002060008473ffffffffffffffffffffffffffffffffffffffff1673ffffffffffffffffffffffffffffffffffffffff16815260200190815260200160002060006101000a81548160ff0219169083151502179055508173ffffffffffffffffffffffffffffffffffffffff168373ffffffffffffffffffffffffffffffffffffffff167f17307eab39ab6107e8899845ad3d59bd9653f200f220920489ca2b5937696c31836040516118e091906123a9565b60405180910390a3505050565b60008373ffffffffffffffffffffffffffffffffffffffff163b1115611a9e578273ffffffffffffffffffffffffffffffffffffffff1663150b7a02611931611290565b8685856040518563ffffffff1660e01b81526004016119539493929190612ed0565b6020604051808303816000875af192505050801561198f57506040513d601f19601f8201168201806040525081019061198c9190612f31565b60015b611a13573d80600081146119bf576040519150601f19603f3d011682016040523d82523d6000602084013e6119c4565b606091505b506000815103611a0b57836040517f64a0ae92000000000000000000000000000000000000000000000000000000008152600401611a02919061251a565b60405180910390fd5b805181602001fd5b63150b7a0260e01b7bffffffffffffffffffffffffffffffffffffffffffffffffffffffff1916817bffffffffffffffffffffffffffffffffffffffffffffffffffffffff191614611a9c57836040517f64a0ae92000000000000000000000000000000000000000000000000000000008152600401611a93919061251a565b60405180910390fd5b505b50505050565b606060405180602001604052806000815250905090565b6060611ac6826111cb565b506000611ad1611aa4565b90506000815111611af15760405180602001604052806000815250611b1c565b80611afb84611ece565b604051602001611b0c929190612e0f565b6040516020818303038152906040525b915050919050565b611b3e828260405180602001604052806000815250611f9c565b5050565b80600660008481526020019081526020016000209081611b62919061310a565b507ff8e1a15aba9398e019f0b49df1a4fde98ee17ae345cb5f6b5e2c27f5033e8ce782604051611b929190612698565b60405180910390a15050565b60007f01ffc9a7000000000000000000000000000000000000000000000000000000007bffffffffffffffffffffffffffffffffffffffffffffffffffffffff1916827bffffffffffffffffffffffffffffffffffffffffffffffffffffffff1916149050919050565b60006002600083815260200190815260200160002060009054906101000a900473ffffffffffffffffffffffffffffffffffffffff169050919050565b8080611c7e5750600073ffffffffffffffffffffffffffffffffffffffff168273ffffffffffffffffffffffffffffffffffffffff1614155b15611db2576000611c8e846111cb565b9050600073ffffffffffffffffffffffffffffffffffffffff168373ffffffffffffffffffffffffffffffffffffffff1614158015611cf957508273ffffffffffffffffffffffffffffffffffffffff168173ffffffffffffffffffffffffffffffffffffffff1614155b8015611d0c5750611d0a8184610fcf565b155b15611d4e57826040517fa9fbf51f000000000000000000000000000000000000000000000000000000008152600401611d45919061251a565b60405180910390fd5b8115611db057838573ffffffffffffffffffffffffffffffffffffffff168273ffffffffffffffffffffffffffffffffffffffff167f8c5be1e5ebec7d5bd14f71427d1e84f3dd0314c0f7b2291e5b200ac8c7c3b92560405160405180910390a45b505b836004600085815260200190815260200160002060006101000a81548173ffffffffffffffffffffffffffffffffffffffff021916908373ffffffffffffffffffffffffffffffffffffffff16021790555050505050565b611e15838383611fb8565b611ec957600073ffffffffffffffffffffffffffffffffffffffff168373ffffffffffffffffffffffffffffffffffffffff1603611e8a57806040517f7e273289000000000000000000000000000000000000000000000000000000008152600401611e819190612698565b60405180910390fd5b81816040517f177e802f000000000000000000000000000000000000000000000000000000008152600401611ec09291906131dc565b60405180910390fd5b505050565b606060006001611edd84612079565b01905060008167ffffffffffffffff811115611efc57611efb612769565b5b6040519080825280601f01601f191660200182016040528015611f2e5781602001600182028036833780820191505090505b509050600082602001820190505b600115611f91578080600190039150507f3031323334353637383961626364656600000000000000000000000000000000600a86061a8153600a8581611f8557611f84613205565b5b04945060008503611f3c575b819350505050919050565b611fa683836121cc565b611fb360008484846118ed565b505050565b60008073ffffffffffffffffffffffffffffffffffffffff168373ffffffffffffffffffffffffffffffffffffffff161415801561207057508273ffffffffffffffffffffffffffffffffffffffff168473ffffffffffffffffffffffffffffffffffffffff16148061203157506120308484610fcf565b5b8061206f57508273ffffffffffffffffffffffffffffffffffffffff1661205783611253565b73ffffffffffffffffffffffffffffffffffffffff16145b5b90509392505050565b600080600090507a184f03e93ff9f4daa797ed6e38ed64bf6a1f01000000000000000083106120d7577a184f03e93ff9f4daa797ed6e38ed64bf6a1f01000000000000000083816120cd576120cc613205565b5b0492506040810190505b6d04ee2d6d415b85acef81000000008310612114576d04ee2d6d415b85acef8100000000838161210a57612109613205565b5b0492506020810190505b662386f26fc10000831061214357662386f26fc10000838161213957612138613205565b5b0492506010810190505b6305f5e100831061216c576305f5e100838161216257612161613205565b5b0492506008810190505b612710831061219157612710838161218757612186613205565b5b0492506004810190505b606483106121b457606483816121aa576121a9613205565b5b0492506002810190505b600a83106121c3576001810190505b80915050919050565b600073ffffffffffffffffffffffffffffffffffffffff168273ffffffffffffffffffffffffffffffffffffffff160361223e5760006040517f64a0ae92000000000000000000000000000000000000000000000000000000008152600401612235919061251a565b60405180910390fd5b600061224c838360006112aa565b9050600073ffffffffffffffffffffffffffffffffffffffff168173ffffffffffffffffffffffffffffffffffffffff16146122c05760006040517f73c6ac6e0000000000000000000000000000000000000000000000000000000081526004016122b7919061251a565b60405180910390fd5b505050565b604051806040016040528060008152602001600073ffffffffffffffffffffffffffffffffffffffff1681525090565b6000604051905090565b600080fd5b600080fd5b60007fffffffff0000000000000000000000000000000000000000000000000000000082169050919050565b61233e81612309565b811461234957600080fd5b50565b60008135905061235b81612335565b92915050565b600060208284031215612377576123766122ff565b5b60006123858482850161234c565b91505092915050565b60008115159050919050565b6123a38161238e565b82525050565b60006020820190506123be600083018461239a565b92915050565b600081519050919050565b600082825260208201905092915050565b60005b838110156123fe5780820151818401526020810190506123e3565b60008484015250505050565b6000601f19601f8301169050919050565b6000612426826123c4565b61243081856123cf565b93506124408185602086016123e0565b6124498161240a565b840191505092915050565b6000602082019050818103600083015261246e818461241b565b905092915050565b6000819050919050565b61248981612476565b811461249457600080fd5b50565b6000813590506124a681612480565b92915050565b6000602082840312156124c2576124c16122ff565b5b60006124d084828501612497565b91505092915050565b600073ffffffffffffffffffffffffffffffffffffffff82169050919050565b6000612504826124d9565b9050919050565b612514816124f9565b82525050565b600060208201905061252f600083018461250b565b92915050565b61253e816124f9565b811461254957600080fd5b50565b60008135905061255b81612535565b92915050565b60008060408385031215612578576125776122ff565b5b60006125868582860161254c565b925050602061259785828601612497565b9150509250929050565b6125aa81612476565b82525050565b6125b9816124f9565b82525050565b6040820160008201516125d560008501826125a1565b5060208201516125e860208501826125b0565b50505050565b600060408201905061260360008301846125bf565b92915050565b600080600060608486031215612622576126216122ff565b5b60006126308682870161254c565b93505060206126418682870161254c565b925050604061265286828701612497565b9150509250925092565b600060208284031215612672576126716122ff565b5b60006126808482850161254c565b91505092915050565b61269281612476565b82525050565b60006020820190506126ad6000830184612689565b92915050565b600080604083850312156126ca576126c96122ff565b5b60006126d885828601612497565b92505060206126e985828601612497565b9150509250929050565b6126fc8161238e565b811461270757600080fd5b50565b600081359050612719816126f3565b92915050565b60008060408385031215612736576127356122ff565b5b60006127448582860161254c565b92505060206127558582860161270a565b9150509250929050565b600080fd5b600080fd5b7f4e487b7100000000000000000000000000000000000000000000000000000000600052604160045260246000fd5b6127a18261240a565b810181811067ffffffffffffffff821117156127c0576127bf612769565b5b80604052505050565b60006127d36122f5565b90506127df8282612798565b919050565b600067ffffffffffffffff8211156127ff576127fe612769565b5b6128088261240a565b9050602081019050919050565b82818337600083830152505050565b6000612837612832846127e4565b6127c9565b90508281526020810184848401111561285357612852612764565b5b61285e848285612815565b509392505050565b600082601f83011261287b5761287a61275f565b5b813561288b848260208601612824565b91505092915050565b600080600080608085870312156128ae576128ad6122ff565b5b60006128bc8782880161254c565b94505060206128cd8782880161254c565b93505060406128de87828801612497565b925050606085013567ffffffffffffffff8111156128ff576128fe612304565b5b61290b87828801612866565b91505092959194509250565b600067ffffffffffffffff82111561293257612931612769565b5b61293b8261240a565b9050602081019050919050565b600061295b61295684612917565b6127c9565b90508281526020810184848401111561297757612976612764565b5b612982848285612815565b509392505050565b600082601f83011261299f5761299e61275f565b5b81356129af848260208601612948565b91505092915050565b6000602082840312156129ce576129cd6122ff565b5b600082013567ffffffffffffffff8111156129ec576129eb612304565b5b6129f88482850161298a565b91505092915050565b60008060408385031215612a1857612a176122ff565b5b6000612a268582860161254c565b9250506020612a378582860161254c565b9150509250929050565b7f4e487b7100000000000000000000000000000000000000000000000000000000600052602260045260246000fd5b60006002820490506001821680612a8857607f821691505b602082108103612a9b57612a9a612a41565b5b50919050565b6000606082019050612ab6600083018661250b565b612ac36020830185612689565b612ad0604083018461250b565b949350505050565b7f4e6f74207468652073656c6c6572000000000000000000000000000000000000600082015250565b6000612b0e600e836123cf565b9150612b1982612ad8565b602082019050919050565b60006020820190508181036000830152612b3d81612b01565b9050919050565b7f4e4654206e6f7420666f722073616c6500000000000000000000000000000000600082015250565b6000612b7a6010836123cf565b9150612b8582612b44565b602082019050919050565b60006020820190508181036000830152612ba981612b6d565b9050919050565b7f496e73756666696369656e74207061796d656e74000000000000000000000000600082015250565b6000612be66014836123cf565b9150612bf182612bb0565b602082019050919050565b60006020820190508181036000830152612c1581612bd9565b9050919050565b7f4e487b7100000000000000000000000000000000000000000000000000000000600052601160045260246000fd5b6000612c5682612476565b9150612c6183612476565b9250828203905081811115612c7957612c78612c1c565b5b92915050565b6000608082019050612c946000830187612689565b612ca16020830186612689565b612cae604083018561250b565b612cbb606083018461250b565b95945050505050565b7f4e6f7420746865206f776e657200000000000000000000000000000000000000600082015250565b6000612cfa600d836123cf565b9150612d0582612cc4565b602082019050919050565b60006020820190508181036000830152612d2981612ced565b9050919050565b7f5072696365206d7573742062652067726561746572207468616e207a65726f00600082015250565b6000612d66601f836123cf565b9150612d7182612d30565b602082019050919050565b60006020820190508181036000830152612d9581612d59565b9050919050565b6000606082019050612db16000830186612689565b612dbe6020830185612689565b612dcb604083018461250b565b949350505050565b600081905092915050565b6000612de9826123c4565b612df38185612dd3565b9350612e038185602086016123e0565b80840191505092915050565b6000612e1b8285612dde565b9150612e278284612dde565b91508190509392505050565b6000612e3e82612476565b91507fffffffffffffffffffffffffffffffffffffffffffffffffffffffffffffffff8203612e7057612e6f612c1c565b5b600182019050919050565b600081519050919050565b600082825260208201905092915050565b6000612ea282612e7b565b612eac8185612e86565b9350612ebc8185602086016123e0565b612ec58161240a565b840191505092915050565b6000608082019050612ee5600083018761250b565b612ef2602083018661250b565b612eff6040830185612689565b8181036060830152612f118184612e97565b905095945050505050565b600081519050612f2b81612335565b92915050565b600060208284031215612f4757612f466122ff565b5b6000612f5584828501612f1c565b91505092915050565b60008190508160005260206000209050919050565b60006020601f8301049050919050565b600082821b905092915050565b600060088302612fc07fffffffffffffffffffffffffffffffffffffffffffffffffffffffffffffffff82612f83565b612fca8683612f83565b95508019841693508086168417925050509392505050565b6000819050919050565b6000613007613002612ffd84612476565b612fe2565b612476565b9050919050565b6000819050919050565b61302183612fec565b61303561302d8261300e565b848454612f90565b825550505050565b600090565b61304a61303d565b613055818484613018565b505050565b5b818110156130795761306e600082613042565b60018101905061305b565b5050565b601f8211156130be5761308f81612f5e565b61309884612f73565b810160208510156130a7578190505b6130bb6130b385612f73565b83018261305a565b50505b505050565b600082821c905092915050565b60006130e1600019846008026130c3565b1980831691505092915050565b60006130fa83836130d0565b9150826002028217905092915050565b613113826123c4565b67ffffffffffffffff81111561312c5761312b612769565b5b6131368254612a70565b61314182828561307d565b600060209050601f8311600181146131745760008415613162578287015190505b61316c85826130ee565b8655506131d4565b601f19841661318286612f5e565b60005b828110156131aa57848901518255600182019150602085019450602081019050613185565b868310156131c757848901516131c3601f8916826130d0565b8355505b6001600288020188555050505b505050505050565b60006040820190506131f1600083018561250b565b6131fe6020830184612689565b9392505050565b7f4e487b7100000000000000000000000000000000000000000000000000000000600052601260045260246000fdfea2646970667358221220b594d6300b270e636f2a37284a5c6dfc7d1463b114bfda71d09cae0b7d01675564736f6c63430008180033",
  "linkReferences": {},
  "deployedLinkReferences": {}
}